:020000040000FA
:100000000C945D000C947A000C947A000C947A00A5
:100010000C947A000C947A000C947A000C94AB0245
:100020000C947A000C947A000C947A000C947A0068
:100030000C947A000C947A000C947A000C947A0058
:100040000C9407030C947A000C947A000C947A00B8
:100050000C947A000C947A000C947A000C947A0038
:100060000C947A000C947A00000000080002010051
:100070000003040700000000000000000200000070
:1000800000250028002B0000000000240027002A83
:100090000004040404040404040202020202020331
:1000A000030303030301020408102040800102043B
:1000B0000810200102040810200011241FBECFEFF9
:1000C000D8E0DEBFCDBF11E0A0E0B1E0E4ECFFE09E
:1000D00002C005900D92A230B107D9F721E0A2E04D
:1000E000B1E001C01D92AC31B207E1F70E945103AB
:1000F0000C94E0070C940000E1EBF0E02491EDE9B2
:10010000F0E08491882399F090E0880F991FFC011A
:10011000E957FF4FA591B491FC01E358FF4F85913A
:1001200094918FB7F894EC91E22BEC938FBF0895E4
:10013000CF92DF92EF92FF92CF936C0180910001FA
:100140008C3041F08F3FA1F0CF91FF90EF90DF9086
:10015000CF900895ECE7F0E0C491C7FDF5CF0E9481
:100160007C00CC2309F432C0C23009F089C02EC013
:100170008CE080930001ECE7F0E0C491CF3F21F3E5
:10018000C13009F45EC040F0C23009F4A6C0C7FD1A
:10019000DBCF0E947C00E8CF14BC15BC84B5826024
:1001A00084BD85B5816085BDEDE9F0E0E491F0E0C6
:1001B000EE0FFF1FE358FF4F85919491E1EBF0E0C4
:1001C000E491E0930F010E947C00C0E0F12CE12C4F
:1001D00068E478EE81E090E0A70196010E949F0715
:1001E000BA01A9014150510961097109CC2309F4EF
:1001F000DAC0C23009F095C04F3F51056105710565
:1002000009F00CF4BBC064E274EF80E090E0A70159
:1002100096010E949F07BA01A90141505109610945
:10022000710995E08091B100887F892B8093B1009E
:10023000C13009F43DC0C23009F4A2C0C11184CF5D
:100240008BC01092800010928100809181008860A4
:100250008093810080918100816080938100EDE92D
:10026000F0E0E491F0E0EE0FFF1FE358FF4F8591BF
:100270009491E1EBF0E0E491E0930E010E947C00A8
:10028000960150E040E060E072E18AE790E00E9471
:100290009F07BA01A9014150510961097109C13093
:1002A00009F0C6CF80918100887F816080938100B2
:1002B00050938900409388008FEF9FEFDC0180937B
:1002C000140190931501A0931601B093170180912A
:1002D0006F00826080936F0037CF1092B000109251
:1002E000B1008091B00082608093B0008091B10035
:1002F00081608093B100EDE9F0E0E491F0E0EE0F71
:10030000FF1FE358FF4F8591949190930D018093C7
:100310000C01E1EBF0E0E491E0930B010E947C0022
:1003200055CF4F3F51056105710541F13CF162E147
:100330007AE780E090E0A70196010E949F07BA014A
:10034000A9014150510961097109C11135C094E0F9
:1003500085B5887F892B85BD47BD8FEF9FEFDC0179
:100360008093180190931901A0931A01B0931B0177
:1003700080916E00826080936E00E6CE94E052CF52
:100380004093B3008FEF9FEFDC01809310019093B7
:100390001101A0931201B09313018091700082604B
:1003A00080937000D1CE93E04F3F510561057105F8
:1003B00011F00CF0BCCFCCCF96E034CF909100017F
:1003C00089130DC0ECE7F0E0E4919FEF90930001FA
:1003D000E13009F431C068F1E23009F433C090E053
:1003E000FC01E859FF4F2491FC01EB55FF4F34917C
:1003F000FC01EF56FF4FE491EE23D1F0222351F0A0
:10040000233009F43AC078F5213009F43CC0223099
:1004100009F43DC0F0E0EE0FFF1FE358FF4FA59138
:10042000B4918FB7F894EC9130953E233C938FBFF5
:10043000089510926E00D3CF90916F009D7F90939E
:100440006F00CDCF909170009D7F9093700091E0F0
:100450009093B0009091B100987F94609093B10018
:100460001092B300BCCF2730A9F02830C9F0243057
:1004700089F6809180008F7D03C0809180008F7706
:1004800080938000C7CF84B58F7784BDC3CF84B5F8
:100490008F7DFBCF8091B0008F778093B000BACF73
:1004A0008091B0008F7DF9CF3FB7F894809107011C
:1004B00090910801A0910901B0910A0126B5A89B6D
:1004C00005C02F3F19F00196A11DB11D3FBFBA2FE6
:1004D000A92F982F8827BC01CD01620F711D811DA6
:1004E000911D42E0660F771F881F991F4A95D1F72B
:1004F00008958F929F92AF92BF92CF92DF92EF9228
:10050000FF924B015C010E9454026B017C010E942E
:1005100054026C197D098E099F09683E734081055C
:100520009105A8F321E0821A9108A108B10888EE8C
:10053000C80E83E0D81EE11CF11C81149104A104B3
:10054000B10429F7FF90EF90DF90CF90BF90AF906C
:100550009F908F9008951F920F920FB60F921124C3
:100560002F933F934F935F936F937F938F939F93BB
:10057000AF93BF93EF93FF9380911001909111017E
:10058000A0911201B0911301892B8A2B8B2BD1F1F1
:1005900090910B01E0910C01F0910D018081892770
:1005A00080838091100190911101A0911201B0916E
:1005B0001301181619061A061B069CF480911001E7
:1005C00090911101A0911201B09113010197A1091D
:1005D000B1098093100190931101A0931201B0937F
:1005E0001301FF91EF91BF91AF919F918F917F91F7
:1005F0006F915F914F913F912F910F900FBE0F9090
:100600001F901895809100010E94DE01EACF1F9291
:100610000F920FB60F9211242F933F938F939F93B6
:10062000AF93BF938091030190910401A0910501C4
:10063000B09106013091020123E0230F2D3758F5C8
:100640000196A11DB11D2093020180930301909397
:100650000401A0930501B0930601809107019091D8
:100660000801A0910901B0910A010196A11DB11DD7
:100670008093070190930801A0930901B0930A01A8
:10068000BF91AF919F918F913F912F910F900FBE8E
:100690000F901F90189526E8230F0296A11DB11DFB
:1006A000D2CF789484B5826084BD84B5816084BDE6
:1006B00085B5826085BD85B5816085BD80916E0000
:1006C000816080936E001092810080918100826031
:1006D000809381008091810081608093810080916E
:1006E00080008160809380008091B100846080935D
:1006F000B1008091B00081608093B00080917A0059
:10070000846080937A0080917A00826080937A007E
:1007100080917A00816080937A0080917A0080686D
:1007200080937A001092C1000E947C00C0E0D0E06B
:1007300083E992E00E94980064EF71E080E090E02D
:100740000E9479028AEB92E00E94980068EC70E0C7
:1007500080E090E00E94790283E992E00E94980094
:1007600064EF71E080E090E00E9479028BE492E017
:100770000E94980068EC70E080E090E00E947902AE
:100780008BE092E00E94980064EF71E080E090E0DE
:100790000E94790283E992E00E94980064EF71E080
:1007A00080E090E00E9479028AEB92E00E9498003B
:1007B00068EC70E080E090E00E94790283E992E0CA
:1007C0000E94980064EF71E080E090E00E9479025E
:1007D0008BE492E00E94980068EC70E080E090E08A
:1007E0000E9479028BE092E00E94980064EF71E031
:1007F00080E090E00E94790283E992E00E949800F4
:1008000064EF71E080E090E00E9479028AEB92E070
:100810000E94980068EC70E080E090E00E9479020D
:1008200083E992E00E94980064EF71E080E090E03C
:100830000E9479028BE492E00E94980068EC70E0DC
:1008400080E090E00E9479028BE092E00E949800A4
:1008500064EF71E080E090E00E9479028EEE91E01A
:100860000E94980068EE73E080E090E00E947902B8
:100870008BE492E00E94980064EF71E080E090E0E9
:100880000E94790283E992E00E94980068EC70E08F
:1008900080E090E00E9479028BE492E00E94980050
:1008A00064EF71E080E090E00E9479028BE092E0DA
:1008B0000E94980068EC70E080E090E00E9479026D
:1008C0008EEE91E00E94980064EF71E080E090E08D
:1008D0000E9479028BE492E00E94980064EF71E03C
:1008E00080E090E00E94790283E992E00E94980003
:1008F00068EC70E080E090E00E9479028BE492E086
:100900000E94980064EF71E080E090E00E9479021C
:100910008BE092E00E94980068EC70E080E090E04C
:100920000E9479028EEE91E00E94980064EF71E0DF
:1009300080E090E00E9479028BE492E00E949800AF
:1009400064EF71E080E090E00E94790283E992E038
:100950000E94980068EC70E080E090E00E947902CC
:100960008BE492E00E94980064EF71E080E090E0F8
:100970000E9479028BE092E00E94980068EC70E09F
:1009800080E090E00E9479028EEE91E00E94980053
:1009900064EF71E080E090E00E94790288EB91E0E2
:1009A0000E94980068EE73E080E090E00E94790277
:1009B00083E992E00E94980064EF71E080E090E0AB
:1009C0000E9479028AEB92E00E94980068EC70E045
:1009D00080E090E00E94790283E992E00E94980012
:1009E00064EF71E080E090E00E9479028BE492E095
:1009F0000E94980068EC70E080E090E00E9479022C
:100A00008BE092E00E94980064EF71E080E090E05B
:100A10000E94790283E992E00E94980064EF71E0FD
:100A200080E090E00E9479028AEB92E00E949800B8
:100A300068EC70E080E090E00E94790283E992E047
:100A40000E94980064EF71E080E090E00E947902DB
:100A50008BE492E00E94980068EC70E080E090E007
:100A60000E9479028BE092E00E94980064EF71E0AE
:100A700080E090E00E94790283E992E00E94980071
:100A800064EF71E080E090E00E9479028AEB92E0EE
:100A90000E94980068EC70E080E090E00E9479028B
:100AA00083E992E00E94980064EF71E080E090E0BA
:100AB0000E9479028BE492E00E94980068EC70E05A
:100AC00080E090E00E9479028BE092E00E94980022
:100AD00064EF71E080E090E00E9479028BE492E0A4
:100AE0000E94980064EF71E080E090E00E9479023B
:100AF00083E992E00E94980068EC70E080E090E06A
:100B00000E9479028BE492E00E94980064EF71E009
:100B100080E090E00E9479028BE092E00E949800D1
:100B200068EC70E080E090E00E9479028EEE91E047
:100B30000E94980064EF71E080E090E00E947902EA
:100B40008BE492E00E94980064EF71E080E090E016
:100B50000E94790283E992E00E94980068EC70E0BC
:100B600080E090E00E9479028BE492E00E9498007D
:100B700064EF71E080E090E00E9479028BE092E007
:100B80000E94980068EC70E080E090E00E9479029A
:100B90008EEE91E00E94980064EF71E080E090E0BA
:100BA0000E9479028BE492E00E94980064EF71E069
:100BB00080E090E00E94790283E992E00E94980030
:100BC00068EC70E080E090E00E9479028BE492E0B3
:100BD0000E94980064EF71E080E090E00E9479024A
:100BE0008BE092E00E94980068EC70E080E090E07A
:100BF0000E9479028EEE91E00E94980064EF71E00D
:100C000080E090E00E94790288EB91E00E949800D9
:100C10006CEB72E080E090E00E94790288EB91E05A
:100C20000E94980068EC70E080E090E00E947902F9
:100C300088EB91E00E94980068EC70E080E090E022
:100C40000E9479028EEE91E00E94980068EC70E0BC
:100C500080E090E00E9479028BE092E00E94980090
:100C600064EF71E080E090E00E9479028BE092E016
:100C70000E94980068EC70E080E090E00E947902A9
:100C80008BE092E00E94980068EC70E080E090E0D9
:100C90000E9479028BE092E00E94980068EC70E07C
:100CA00080E090E00E9479028EEE91E00E94980030
:100CB00064EF71E080E090E00E94790288EB91E0BF
:100CC0000E94980064EF71E080E090E00E94790259
:100CD0008BE092E00E94980068EC70E080E090E089
:100CE0000E9479028BE092E00E94980068EC70E02C
:100CF00080E090E00E9479028EEE91E00E949800E0
:100D000064EF71E080E090E00E94790288EB91E06E
:100D10000E94980064EF71E080E090E00E94790208
:100D20008BE092E00E94980068EC70E080E090E038
:100D30000E9479028EEE91E00E94980068EC70E0CB
:100D400080E090E00E9479028BE092E00E9498009F
:100D500068EC70E080E090E00E9479028BE492E021
:100D60000E94980064EF71E080E090E00E947902B8
:100D70008BE092E00E94980068EC70E080E090E0E8
:100D80000E9479028EEE91E00E94980064EF71E07B
:100D900080E090E00E94790268E572E080E090E0F7
:100DA0000E9479028FE991E00E94980068EC70E05F
:100DB00080E090E00E9479028FE991E00E94980023
:100DC00068EC70E080E090E00E94790288EB91E0AE
:100DD0000E94980064EF71E080E090E00E94790248
:100DE0008EEE91E00E94980064EF71E080E090E068
:100DF0000E9479028EEE91E00E94980068EC70E00B
:100E000080E090E00E9479028EEE91E00E949800CE
:100E100068EC70E080E090E00E9479028EEE91E054
:100E20000E94980068EC70E080E090E00E947902F7
:100E300088EB91E00E94980064EF71E080E090E020
:100E40000E9479028FE991E00E94980064EF71E0BE
:100E500080E090E00E9479028EEE91E00E9498007E
:100E600064EF71E080E090E00E9479028EEE91E004
:100E70000E94980068EC70E080E090E00E947902A7
:100E800088EB91E00E94980064EF71E080E090E0D0
:100E90000E9479028FE991E00E94980064EF71E06E
:100EA00080E090E00E9479028EEE91E00E9498002E
:100EB00068EC70E080E090E00E94790288EB91E0BD
:100EC0000E94980068EC70E080E090E00E94790257
:100ED0008EEE91E00E94980068EC70E080E090E077
:100EE0000E9479028BE092E00E94980064EF71E02A
:100EF00080E090E00E9479028EEE91E00E949800DE
:100F000068EC70E080E090E00E94790288EB91E06C
:100F10000E94980064EF71E080E090E00E94790206
:100F20008CE00E94DE0168E572E080E090E00E94C3
:100F30007902209709F4FCCB0E940000F9CB052E22
:100F400097FB1EF400940E94B60757FD07D00E943D
:100F5000BE0707FC03D04EF40C94B607509540959D
:100F6000309521953F4F4F4F5F4F08959095809555
:100F7000709561957F4F8F4F9F4F0895A1E21A2E74
:100F8000AA1BBB1BFD010DC0AA1FBB1FEE1FFF1F2D
:100F9000A217B307E407F50720F0A21BB30BE40B7D
:100FA000F50B661F771F881F991F1A9469F76095C4
:100FB0007095809590959B01AC01BD01CF0108957E
:060FC000F894FFCFFF00D2
:107E0000112484B714BE81FFF0D085E080938100F7
:107E100082E08093C00088E18093C10086E0809377
:107E2000C20080E18093C4008EE0C9D0259A86E02C
:107E300020E33CEF91E0309385002093840096BBD3
:107E4000B09BFECF1D9AA8958150A9F7CC24DD24C4
:107E500088248394B5E0AB2EA1E19A2EF3E0BF2EE7
:107E6000A2D0813461F49FD0082FAFD0023811F036
:107E7000013811F484E001C083E08DD089C08234E0
:107E800011F484E103C0853419F485E0A6D080C0E4
:107E9000853579F488D0E82EFF2485D0082F10E0AE
:107EA000102F00270E291F29000F111F8ED06801E7
:107EB0006FC0863521F484E090D080E0DECF843638
:107EC00009F040C070D06FD0082F6DD080E0C81688
:107ED00080E7D80618F4F601B7BEE895C0E0D1E017
:107EE00062D089930C17E1F7F0E0CF16F0E7DF06D8
:107EF00018F0F601B7BEE89568D007B600FCFDCFD4
:107F0000A601A0E0B1E02C9130E011968C91119780
:107F100090E0982F8827822B932B1296FA010C0160
:107F200087BEE89511244E5F5F4FF1E0A038BF0790
:107F300051F7F601A7BEE89507B600FCFDCF97BE46
:107F4000E89526C08437B1F42ED02DD0F82E2BD052
:107F50003CD0F601EF2C8F010F5F1F4F84911BD097
:107F6000EA94F801C1F70894C11CD11CFA94CF0C13
:107F7000D11C0EC0853739F428D08EE10CD085E9AC
:107F80000AD08FE07ACF813511F488E018D01DD067
:107F900080E101D065CF982F8091C00085FFFCCF94
:107FA0009093C60008958091C00087FFFCCF809118
:107FB000C00084FD01C0A8958091C6000895E0E648
:107FC000F0E098E1908380830895EDDF803219F02E
:107FD00088E0F5DFFFCF84E1DECF1F93182FE3DFCA
:107FE0001150E9F7F2DF1F91089580E0E8DFEE27F6
:047FF000FF270994CA
:027FFE00040479
:00000001FF
